:020000040800F2
:10000000002A0020A101000815490008F94600084F
:1000100011490008310C0008DD68000800000000EC
:10002000000000000000000000000000954F0008E4
:10003000350C0008000000005549000865660008FE
:10004000BB010008BB010008BB010008FD4C000813
:10005000BB010008BB010008370C0008BB01000809
:10006000BB010008BB010008BB010008BB01000880
:10007000BB010008BB010008BB010008BB01000870
:10008000BB010008BB010008BB010008BB01000860
:10009000BB010008BB010008BB010008BB01000850
:1000A000BB010008BB010008BB010008BB01000840
:1000B000BB0100080000000000000000BB010008B8
:1000C000BB010008BB010008BB010008BB01000820
:1000D000BB0100089D680008BB010008BB010008C7
:1000E000BB010008BB010008000000000000000088
:1000F0000000000000000000000000000000000000
:1001000000000000BB01000800000000BB01000867
:100110000000000000000000BB010008BB01000857
:10012000BB010008BB010008BB010008BB010008BF
:10013000BB010008000000000000000000000000FB
:10014000BB010008BB010008BB0100080000000063
:10015000BB010008BB010008BB010008BB0100088F
:10016000BB010008BB010008BB0100080000000043
:10017000BB010008BB0100080000000000000000F7
:10018000BB010008BB010008BB010008DFF80CD070
:1001900000F012FB004800474D780008002A0020BC
:1001A0000648804706480047FEE7FEE7FEE7FEE711
:1001B000FEE7FEE7FEE7FEE7FEE7FEE71D67000855
:1001C0008D01000840EA01039B0703D009E008C93C
:1001D000121F08C0042AFAD203E011F8013B00F80C
:1001E000013B521EF9D2704710B5002200E0521CAC
:1001F000835C8C5CA34201D1002BF8D1D8B2E1B270
:10020000401A10BD2DE9FE4F804681EA0300C00F61
:100210000C46009021F0004123F00045B8EB0200AD
:10022000A94105D24046214690461C460B4602464F
:1002300023F00040104347D0270DC7F30A00C3F353
:100240000A510290401A019040286BDAC3F3130060
:1002500040F4801B0098924620B10023D2EB030AA1
:1002600063EB0B0B01985946C0F14002504600F079
:10027000AFF906460D4650465946019A00F0C7F9B7
:1002800010EB08006141002487EA115284EAE77309
:100290001A4340D0009A62B3019A012A4FEA0752EA
:1002A00015DC001B61EB02014FF0004202EA07522D
:1002B000CDE90042001C41F5801132462B4600F08A
:1002C000FEF903B000F045B840462146F9E7001BAF
:1002D00061EB0201001C41F5801300185B412018FE
:1002E000A2F5001747EB030140EAD570B6196D413E
:1002F00011E06D084FEA360645EAC0754FEA07522D
:10030000001B61EB0201001C41F5801149084FEA16
:1003100030000019514132462B4603B000F01CB8A2
:1003200000F0BEB90098012240000023D0EB020289
:1003300063EBE073009821464FEAE074B8EB0000ED
:1003400061EB0401E9E783F000435BE781F00041E2
:1003500058E730BCBDE8C08F30BCBDE8C04FFFF7E8
:10036000DFBF2DE9FE4F81EA030404F0004421F0D1
:10037000004100944FF0000B23F0004350EA0104C9
:100380005ED052EA03045BD0C3F30A54C1F30A55AA
:100390002C44A4F2F3340194A0FB0254C1F31301E2
:1003A00041F48011C3F3130343F4801301FB0244AF
:1003B00000FB034E840A970A44EA815447EA8357B4
:1003C000A4FB076802958D0A05FB07854FEA932C6D
:1003D00004FB0C542705029D4FEA065847EA1637DE
:1003E000B5EB08056EEB070C870E920E47EA8117F6
:1003F00042EA8312A7FB0201B6EB0B0164EB000497
:100400002B0D43EA0C335E1844EB1C50DA46514680
:10041000E7FB0201C5F313044FEA0B3343EA14531D
:100420004FEA0432019C43EA0603A4F10C0402944F
:10043000009CCDE900B400F042F903B000F003B82D
:1004400000200146F9E730BCBDE8C08F2DE9F04D32
:1004500081EA030404F0004B21F0004514464FF0FC
:10046000000A23F0004150EA050220D054EA0102BC
:100470001DD0C5F30A570246C5F31303C1F3130099
:10048000C1F30A5640F4801543F48013A7EB060825
:10049000101BD64608F2FD3873EB050002D308F1B5
:1004A000010801E092185B41B8F1000F03DA002067
:1004B0000146BDE8F08D00204FF4801106468446C9
:1004C0000EE0171B73EB050705D3121B63EB050347
:1004D00006434CEA010C49084FEA300092185B4190
:1004E00050EA0107EDD152EA030012D082EA04007B
:1004F00083EA0501084305D0101BAB4106D2012257
:10050000002306E000224FF0004302E06FF00102FA
:1005100053101AEB06004CEB085110EB0A0041EBAC
:100520000B01BDE8F04D00F0BBB80EB5C10F80EA7D
:10053000E0700844CA07002140F233438DE80E0002
:100540000A460B4600F0BBF803B000BD0EB540F202
:10055000334102910021CDE900110A460B4600F01B
:10056000AEF803B000BDC1F30A5210B5C1F31301D8
:1005700040F2FF3341F480119A4201DA002010BDAD
:1005800040F233439A42A2F2334203DC524200F07B
:100590002EF810BD904010BD01F0004330B421F0A2
:1005A000004150EA010206D00A0DA2F56072C1F3C3
:1005B0001301002A02DC30BC00207047440F44EADB
:1005C000C104C100E01830BC00EBC25000F031B8EB
:1005D000202A04DB203A00FA02F100207047914003
:1005E000C2F1200320FA03F3194390407047202AF8
:1005F00004DB203A21FA02F00021704721FA02F3CD
:10060000D040C2F120029140084319467047202A89
:1006100006DBCB17203A41FA02F043EAE07306E02A
:1006200041FA02F3D040C2F120029140084319463A
:1006300070470029A8BF7047401C490008BF20F040
:100640000100704710B4B0FA80FC00FA0CF050EAD8
:10065000010404BF10BC704749B1CCF1200421FA59
:1006600004F411FA0CF118BF012121430843A3EB54
:100670000C01CB1D4FEA00614FEA102042BF002061
:1006800010BC704700EBC35010440029A4BF10BC3D
:100690007047401C490008BF20F0010010BC7047A3
:1006A00010B5141E73F1000408DA401C41F100017A
:1006B00092185B411A4301D120F0010010BD2DE9D1
:1006C000F04D92469B4611B1B1FA81F202E0B0FAC8
:1006D00080F220329046FFF77BFF04460F4640EA47
:1006E0000A0041EA0B0153465A46084313D011460B
:1006F00053EA010019D0C8F140025046FFF777FFD6
:1007000005460E46504659464246FFF761FF0843EC
:1007100005D0012004E020463946BDE8F08D0020D8
:10072000054346EAE0762C4337430A986305E40A1A
:10073000A0EB08000022FD0A44EA47540A3002D523
:1007400000200146E9E7010510196941DDE9084586
:1007500000196941BDE8F04DA2E770B521F00043F2
:1007600003430CD0C1F30A550024D5EB040564EB18
:100770000403D617AD1AB34102DB0020014670BD59
:10078000201841EB025170BD30B5041E71F1000418
:1007900004DB4FF00044404264EB0101141E73F18E
:1007A000000405DB1C464FF00043524263EB040398
:1007B000994208BF904230BD064C074D06E0E06804
:1007C00040F0010394E8070098471034AC42F6D398
:1007D000FFF7E0FC707D0008907D00082DE9F04DEA
:1007E00000231A461B1A8A4103DB00200146BDE89C
:1007F000F08DC1F30A52C1F3130141F480154FF09B
:10080000000BD10702D100186D41521E002704468B
:1008100040F2FF11384601EB620A3E46804602462E
:1008200000204FF48011FFF7E2FEC2197141BB189E
:1008300046EB0100B4EB030C75EB000C04D3E41A97
:1008400065EB000517460E46241908F101006D41BD
:1008500080463428E3DDF91946EB0600091BA84160
:1008600003D24FF0FF32134601E0002213461BEB88
:10087000070046EB0A51BDE8F04DFFF711BF00003D
:1008800000B587B00A48019006200290002003902E
:100890007F200490042005900020069001A90548BF
:1008A00000F036FD08B100F011FA07B000BD0000FD
:1008B000000021431405002000B587B00A480190CC
:1008C00006200290002003907F20049004200590D1
:1008D0000020069001A9054800F01AFD08B100F0BB
:1008E000F5F907B000BD00000001802114050020CB
:1008F00070B5044600252068806800F003000128D8
:1009000006D12068006800F0010008B1012000E075
:10091000002080B32068806800F00D00012800D11D
:1009200000E0002050B120688168174A1140891CFE
:10093000816000BF03202168086009E0A06D40F0DD
:100940001000A065E06D40F00100E065012070BD81
:1009500001F006FC05460FE001F002FC401B0228F6
:100960000AD9A06D40F01000A065E06D40F00100D4
:10097000E0650120EBE705E02068806800F00100F9
:100980000028E9D10020E2E7C0FFFF7F38B5044628
:100990000025002000902068806800F003000128F6
:1009A00006D12068006800F0010008B1012000E0D5
:1009B0000020002846D1206880682349084008B9F3
:1009C000012000E0002048B9A06D40F01000A065B3
:1009D000E06D40F00100E065012038BD206803F0C3
:1009E00097FE1A4800681A49B0FBF1F000EB80004E
:1009F0004000009002E00098401E009000980028FF
:100A0000F9D101F0ADFB054616E02068816801F0E0
:100A1000010111B9206803F07BFE01F0A1FB401B2E
:100A2000022809D9A06D40F01000A065E06D40F0EB
:100A30000100E0650120D0E72068006800F00100B7
:100A40000028E2D00020C8E73F00008060000020BE
:100A500080841E0010B52DED0A8B03F003FF7F216B
:100A6000614800F0FFFB08B100F030F95E4801F08A
:100A700054F808B100F02AF90A215B4800F0EAFFB7
:100A800010B100F023F904E0574800F0BFFE5749C9
:100A90000880FFF7F5FE7F21534800F0E3FB08B123
:100AA00000F014F9504801F038F808B100F00EF9E0
:100AB0000A214D4800F0CEFF10B100F007F904E024
:100AC000494800F0A3FE4A49088049480088B0F52B
:100AD000FA6F05DD0220474908700020487004E0E5
:100AE000012044490870002048704148008842496C
:100AF000096888422AD201203E49087048701421B2
:100B00003E4802F0B5FB3E490870084600780128CF
:100B100003D100203B49087007E0012039490870E3
:100B200001221421354802F0ACFB37480078012837
:100B300004D13449087000203349087032480078E5
:100B4000022808D101202F49087004E00022142156
:100B50002A4802F096FBFFF7AFFE7F21224800F003
:100B600081FB08B100F0B2F81F4800F0D6FF08B1D1
:100B700000F0ACF80A211C4800F06CFF10B100F046
:100B8000A5F804E0184800F041FE20490880174805
:100B90000088FFF7DBFC41EC1A0B1C480088FFF7CC
:100BA000D5FC41EC1C0B9FED1A0B53EC102BFFF7FF
:100BB000D8FB41EC1B0B53EC1A2BFFF747FC41EC25
:100BC000190B9FED150B53EC102BFFF7CAFB41ECF3
:100BD000180BFFF7E1FC1249086006480968C0F8E5
:100BE000021000F01FB810BD140500207400002092
:100BF000720000200C010020A40000207C050020D1
:100C00007A00002021000020220000207600002031
:100C1000713D0AD7A370F53F0000000000000040BE
:100C20006C000020BDEC088BBDEC02CBFFF7DBBFF6
:100C300000BFFEE7704710B5012001F08FF910BD2D
:100C400010B52DED068B1F2017498861012017492B
:100C50000860174802F01EFB16490968164A126818
:100C6000881AFFF773FC41EC1A0B9FED140B53EC41
:100C7000102BFFF776FB41EC190B9FED120B53EC99
:100C8000102BFFF760FB41EC180BFFF76CFC0949D8
:100C90000860002208460168054802F04FFB01F099
:100CA000B9FBBDEC068B10BD00700040CC280040A5
:100CB0007C0500201400002018000020FCA9F1D2BF
:100CC0004D62004000000000000030400DE00821AF
:100CD000064800F097FA80F00104224608210348F4
:100CE00000F0B6FAC82001F01DF8F0E70004004853
:100CF0001849087F012801D0032811D100BF1649E7
:100D0000096841F40061144A11601146096821F430
:100D10000061116000BF1146096841F40071116063
:100D2000022801D0032811D100BF0B49096841F402
:100D30008051094A11601146096821F480511160FF
:100D400000BF1146096841F4806111600021014A29
:100D500011777047400000200020024000F00101A0
:100D600029B10649496941F00401044A5161034926
:100D7000496941F48031014A5161704700200240C5
:100D8000084A526960F3CA02064B5A611A46526910
:100D900042F002025A611A46526942F480325A61A4
:100DA000704700000020024010B50449496941F035
:100DB0000101024C61610260436010BD00200240ED
:100DC00070B5402204460B46084D6D6945F48025F8
:100DD000064E756172B600BF1D682560241D1B1D7F
:100DE000551EEAB2002AF7D162B670BD002002405B
:100DF00070B5054601F0B4F9064608E0681C30B14C
:100E000001F0AEF9801BA84201D3032070BD1C483D
:100E1000006900F48030B0F5803FEFD018480069D9
:100E2000184900EA01041648806900F000400443B4
:100E3000CCB11548406820431349486000BF04F016
:100E4000404030B10E48806904F0404108430C49ED
:100E5000886124F0404018B124F0404008490861FE
:100E600000BF0120D2E70648006900F0010020B170
:100E700000BF01200249086100BF0020C6E7000052
:100E800000200240FAC302004000002010B500F02C
:100E9000DDFF002010BD000030B585B00546002004
:100EA000049000BF4FF400400B49086100BF0120CF
:100EB000019000200090284600F052F80290012096
:100EC000039004A9684600F03BFF044614B10120DA
:100ED00005B030BD0020FBE70020024010B501F056
:100EE0001FF8002010BD10B503460C46002104E099
:100EF000501A401E205C5854491C9142F8D30020DF
:100F000010BD00002DE9F04705460E46914600242D
:100F100000BF4FF400401149086100BF00BF18E056
:100F200028193119D0E900733A46002000F098FFE3
:100F300060B92819D0E900103219D2E900325940BD
:100F40005040014304D00220BDE8F0870120FBE7B8
:100F500008344C45E4D30020F6E7000000200240AE
:100F600001460020134A12684FF6FF739A4202D1DD
:100F70004FF4801203E00F4A12881205920A02F120
:100F800000628A4203D9A1F10062D00A10E0094A46
:100F900012684FF6FF739A4202D14FF4801203E0B9
:100FA000044A12881205920A02F100628A1AD00AD3
:100FB00070470000E075FF1F10B52DED0A8B00246F
:100FC000354836490860084602F00BF918B933482D
:100FD00002F0FBF884B2314802F0A0F8204604EB9E
:100FE000D0714910A4EB410149BB2D480078FFF7AF
:100FF000ADFA41EC190B2046FFF7A8FA41EC1C0BA7
:101000009FED280B53EC102BFFF7ABF941EC1B0BBA
:101010009FED260B53EC102BFFF718FA41EC1A0B3F
:1010200053EC192BFFF79DF941EC180BFFF79BFAD6
:1010300084B22048006820441E49086028E018480F
:101040000078FFF783FA41EC1A0B2046FFF77EFA8F
:1010500041EC1C0B9FED130B53EC102BFFF781F9A8
:1010600041EC180B9FED110B53EC102BFFF7EEF931
:1010700041EC1B0B53EC1A2BFFF773F941EC190BE6
:10108000FFF771FA84B20B480068001B0949086039
:10109000204600F011B810BD00080650A005002041
:1010A000AC000020FCA9F1D24D620040000000001D
:1010B0000000F04014000020BDEC088BBDEC02CB1A
:1010C000FFF7E9BF0146002001F47F420AB140F07A
:1010D00008004FF2F0020A400AB140F004004CF65A
:1010E000CC420A400AB140F002004AF6AA220A4065
:1010F0000AB140F00100704700B587B000BF354825
:10110000C06C40F001003349C8640846C06C00F070
:101110000100019000BF00BF00BF0846C06C40F056
:101120000200C8640846C06C00F00200019000BFD5
:1011300000BF00BF0846C06C40F00400C864084609
:10114000C06C00F00400019000BF00BF08200290B6
:101150000120039000200490059002A91E4800F091
:101160000BFF41F212100290012003900020049026
:10117000059002A94FF0904000F0FEFE4FF4006091
:101180000290002003900220049002A94FF09040AA
:1011900000F0F2FE0120029010480390022004901B
:1011A00002A94FF0904000F0E7FE002208210A4813
:1011B00000F04EF8012241F210014FF0904000F093
:1011C00047F801224FF481714FF0904000F0C2FFC8
:1011D00007B000BD001002400004004800001110DC
:1011E00070B505462846FFF76DFF0446044850F8E1
:1011F000240018B1024951F82400804770BD000056
:101200000402002070B504460D462946204600F031
:1012100099FF70BD2DE9F04781460D4616461C46E4
:101220002846FFF74FFF074674B1084840F82740AB
:10123000284603F0CFFA804600223146404601F0AE
:101240004DF8404601F03AF8BDE8F087040200206E
:1012500070B505460E461446E2B23146284600F007
:1012600079FF70BD2DE9F04104460D4600260027A8
:1012700000BF94F85400012802D10220BDE8F0819B
:10128000012084F8540000BF2046FFF731FB0646DA
:1012900096BBA06D20F4885040F00200A065206845
:1012A000806820F08040284321688860206880683A
:1012B00040F000402168886010E07F1CB7F5912F56
:1012C0000CD3A06D20F0020040F01000A06500BF1C
:1012D000002084F8540000BF0120CFE72068806818
:1012E00000F00040B0F1004FE7D0A06D20F0020008
:1012F00040F00100A06504E0FFE7A06D40F01000A1
:10130000A06500BF002084F8540000BF3046B5E758
:101310002DE9F84305460C46002700200090FE49C1
:10132000E068884200D000E000BF00BF95F854009C
:10133000012802D10220BDE8F883012085F854007D
:1013400000BF286803F0FFF9002876D160680528FF
:101350001AD86068022806D0032807D0042808D0CD
:1013600005280DD108E00C2060600CE012206060C0
:1013700009E01820606006E04FF48070606002E0D1
:101380000620606000BF00BF2968D4E9002000F497
:10139000407C4FF4407898FAA8F8B8FA88F82CFA0C
:1013A00008FC01F1300808EB8C0300F01F094FF036
:1013B0001F0808FA09F8D3F800C02CEA080C00F05E
:1013C0001F09C2F3846808FA09F84CEA080CC3F84C
:1013D00000C000BF2868806800F00C0008B1012040
:1013E00000E00020002827D1A2682168286803F0C7
:1013F000B7F960692968C968C1F3C101490000FAF9
:1014000001F62069042819D028682268216900F1B2
:10141000600C0CEB8103DFF80483D3F800C00CEA06
:10142000080C02F0F84848F0004848EA06084CEA80
:10143000080CC3F800C000BFA8E0CCE10021286878
:1014400003F073F9C0F3120030B90021286803F0EB
:101450006CF9C0F3846007E00021286803F065F9A7
:1014600090FAA0F0B0FA80F02168C1F3120119B926
:101470002168C1F3846104E0216891FAA1F1B1FA15
:1014800081F1884204D100221146286803F097F9BF
:101490000121286803F049F9C0F3120030B9012195
:1014A000286803F042F9C0F3846007E0012128684E
:1014B00003F03BF990FAA0F0B0FA80F02168C1F394
:1014C000120119B92168C1F3846104E0216891FA1D
:1014D000A1F1B1FA81F1884204D1002201212868EA
:1014E00003F06DF90221286803F01FF9C0F3120020
:1014F00030B90221286803F018F9C0F3846007E0CE
:101500000221286803F011F990FAA0F0B0FA80F0F7
:101510002168C1F3120119B92168C1F3846104E0A3
:10152000216891FAA1F1B1FA81F1884204D1002237
:101530000221286803F043F90321286803F0F5F835
:10154000C0F3120030B90321286803F0EEF8C0F3AD
:10155000846007E00321286803F0E7F890FAA0F020
:10156000B0FA80F02168C1F3120119B92168C1F302
:10157000846104E0216891FAA1F1B1FA81F1884215
:1015800004D100220321286803F019F92868806833
:1015900000F00300012806D12868006800F001006F
:1015A00008B1012000E0002000287CD12868E26812
:1015B0002168D0F8B030C1F3120C23EA0C03C1F358
:1015C000120C02F02009DFF8588108FA09F80CEA39
:1015D000080C43EA0C03C0F8B03000BF4E49E06885
:1015E000884260D12368C3F312031BB92368C3F395
:1015F000846304E0236893FAA3F3B3FA83F35B1CD8
:10160000092B38D82368C3F312031BB92368C3F32B
:10161000846304E0236893FAA3F3B3FA83F35B1CB7
:101620004FF0010C0CFA03FC2368C3F312031BB93F
:101630002368C3F3846304E0236893FAA3F3B3FA43
:1016400083F35B1C4CEA836C2368C3F312031BB95E
:101650002368C3F3846304E0236893FAA3F3B3FA23
:1016600083F35B1C03EB43034FF0000848EA03538A
:101670004CEA030339E02368C3F312031BB9236860
:10168000C3F3846304E0236893FAA3F3B3FA83F308
:101690005B1C4FF0010C0CFA03FC2368C3F312032C
:1016A0002BB9236800E025E0C3F3846304E02368DA
:1016B00093FAA3F3B3FA83F35B1C4CEA836C2368BD
:1016C000C3F312031BB92368C3F3846304E02368E4
:1016D00093FAA3F3B3FA83F3093B03EB43034FF00D
:1016E000007848EA03534CEA03031946A2682868C5
:1016F00003F036F80B492068884205D10A4803F008
:101700000FF800F4000000B308492068884212D1A5
:10171000054803F005F80BE000007F4000F0FF03F0
:10172000FFFF0700000052C700030450000084CBF5
:1017300000F0807048B12E492068884250D12D4871
:1017400002F0EEFF00F4800000BB2B4920688842C5
:101750001DD12A492868884242D1264802F0E0FF7C
:1017600040F400084146234803F023F82448006869
:101770002449B0FBF1F0C0EB0010C000009002E083
:101780000098401E009000980028F9D128E01E49DA
:10179000206888420DD119492868884220D115480F
:1017A00002F0BEFF40F080784146124803F001F895
:1017B00016E00F492068884212D1104928688842F3
:1017C0000ED10C4802F0ACFF40F4800841460948B5
:1017D00002F0EFFF04E0A86D40F02000A8650127AB
:1017E00000BF002085F8540000BF3846A3E5000084
:1017F0000100008000030450000052C700000450A4
:101800006000002080841E00000084CB0146086830
:10181000006C7047F8B504460026002500200090B3
:101820000CB90120F8BD206918B1606A012800D107
:1018300000BFA06D30B9204600F0E6F80020E0655A
:1018400084F8540020688168C1F3407131B1206888
:101850008168674A1140816000BF00BF206802F0C4
:101860006DFFB8B920688168624A114041F080512B
:10187000816000BF604800686049B0FBF1F000EB98
:1018800080004000009002E00098401E0090009808
:101890000028F9D1206802F051FF40B9A06D40F056
:1018A0001000A065E06D40F00100E0650126A06D2C
:1018B00000F01000002872D1206802F044FF0028D8
:1018C000F9D1A06D20F4807040F00200A06520687E
:1018D000806800F00300012806D12068006800F04D
:1018E000010008B1012000E0002050B900BF60688D
:1018F0004349896821F47C110143414A916000BF4A
:1019000000BFA16BE06941EA4030E1680843A1688B
:101910000843A18C40EA0145606A012803D1208D6B
:10192000401E45EA4045E06A28B1A08D00F4707081
:10193000216B084305432068C068324908402843AA
:101940002168C8602068806800F00C0008B10120A0
:1019500000E0002010BB0021A06941EA8031606BEB
:1019600041EA40052068C06844F2020188432843E8
:101970002168C860E06B012812D1206C40F00101A1
:10198000606C0843A16C0843E16C08432168096955
:1019900040F2FC72914308432168086106E01FE0B1
:1019A0002068006920F00100216808612069012891
:1019B00009D12068006B20F00F00216A491E0843FE
:1019C0002168086305E02068006B20F00F002168A3
:1019D0000863A06D20F0020040F00100A06504E063
:1019E000A06D40F01000A065012630461AE7000007
:1019F000C0FFFF5FC0FFFF7F6000002080841E00EB
:101A00000003045007C0F0FF10B586B004460F492C
:101A10002068884218D100BF0D48C06C40F40050C7
:101A20000B49C8640846C06C00F40050009000BF29
:101A300000BF082001900B2002900020039001A914
:101A40004FF0904000F098FA06B010BD000004502E
:101A5000001002402DE9F04104460D460027002603
:101A6000B0466069082801D108260CE02068C068EB
:101A700000F0010030B1A06D40F02000A065012011
:101A8000BDE8F081042600F06BFB074612E0681CFD
:101A900080B125B100F064FBC01BA8420AD9A06D3B
:101AA00040F00400A06500BF002084F8540000BF8F
:101AB0000320E5E72068006830400028E7D0A06DEB
:101AC00040F40070A0652068C06800F4406098B9D8
:101AD000E06988B92068006800F0080008280BD188
:101AE000A06D20F48070A065A06D00F4805018B93E
:101AF000A06D40F00100A0652068D0F80C80082E91
:101B000003D108202168086005E008F4804010B97E
:101B10000C20216808600020B2E770B5044600255B
:101B2000206802F010FE002844D100BF94F8540051
:101B3000012801D1022070BD012084F8540000BFAB
:101B40002046FEF723FF054675BBA06D40F60161F8
:101B5000884340F48070A065A06D20F48010A065DB
:101B6000A06D00F48050B0F5805F04D1E06D20F0EE
:101B70000600E06501E00020E0651C2021680860A7
:101B800000BF002084F8540000BF2068C06800F047
:101B9000007028B1A06D20F4005040F48050A06582
:101BA000206802F0D5FD06E0FFE700BF002084F8C2
:101BB000540000E002252846BDE770B50446002524
:101BC00094F82500022803D00420E063012520E0DA
:101BD0002068006820F00E00216808602068006816
:101BE00020F001002168086094F8440000F01C0116
:101BF00001208840216C4860012084F8250000BF46
:101C0000002084F8240000BFA06B10B12046A16B17
:101C10008847284670BD000010B5014609B901206B
:101C200010BD3E4B086898420BD23D4B0868C01A65
:101C30001423B0FBF3F08000486439480838086486
:101C40000AE0364B0868C01A1423B0FBF3F080009A
:101C50004864324808380864022081F82500086882
:101C6000026847F6F0708243D1E9020318430B691A
:101C700018434B6918438B691843CB6918430B6AA7
:101C800018430243086802608868B0F5804F3AD074
:101C9000234B083B086C98421BD1D0F8A80091F860
:101CA000443003F01C040F23A34098431C4BA03383
:101CB000186091F8443003F01C0348689840184BB2
:101CC000083BD3F8A8301843154B083BC3F8A800CD
:101CD00019E01248A030006891F8443003F01C0469
:101CE0000F23A34098430D4BA033186091F8443064
:101CF00003F01C0348689840084BA0331B68184346
:101D0000064BA03318600020C863012081F825002D
:101D1000002081F8240000BF82E700000804024090
:101D20000800024070B50446002500F019FA054687
:101D300000BF00F015FA401BA042FAD370BD0000AE
:101D40002DE9F04104460F4600BF3E4800780128C7
:101D500002D10220BDE8F08101203A49087000BF9D
:101D60004CF25030FFF744F80646002E63D1354957
:101D700048603548006800F40070B8B13248006827
:101D800020F40070304908600846006800F4806064
:101D900040B10846006820F48060086003202949AB
:101DA000087715E001202749087711E026480068E8
:101DB00000F4806048B12448006820F48060224923
:101DC000086002201F49087702E000201D490877BB
:101DD000206801280ED16068FEF7C0FF4CF2503039
:101DE000FFF706F806461848406920F00400164937
:101DF00048611EE04FF0FF303860A56813E02846C8
:101E00006168FEF7BDFF4CF25030FEF7F1FF064669
:101E10000D48406940F2FA7188430B4948610EB1A0
:101E20003D6005E06D1CD4E902010844A842E6D8F3
:101E300000BFFEF75DFF00BF00200249087000BF31
:101E4000304687E7400000200020024003484069F8
:101E500040F00040014948610020704700200240E6
:101E60002DE9F0470446884615461E464FF0000906
:101E700000BF29480078012802D10220BDE8F08780
:101E800001202549087000BF4CF25030FEF7B0FF2A
:101E90000746002F38D1204948602048006800F4E8
:101EA000806048B11D48006820F480601B490860CC
:101EB00002201949087702E00020174908773CB949
:101EC0002A4633464046FEF76FFF4FF001090BE00C
:101ED000012C01D0022C07D129464046FEF770FFA5
:101EE000022C01D14FF480294CF25030FEF780FFD4
:101EF0000746B9F1000F05D00848406920EA0900FB
:101F000006494861FEF7F4FE00BF00200249087050
:101F100000BF3846B2E70000400000200020024029
:101F200000200849496901F0004151B10649054ABC
:101F30009160064991601146496901F0004101B183
:101F4000012070470020024023016745AB89EFCD97
:101F500010B504462046FFF743F910BD10B50446FE
:101F600004480068204020B1024804602046FFF782
:101F7000EFFF10BD1404014078B503460022002491
:101F80000020CBE0012696400D6805EA0604002CEF
:101F900072D04D68022D02D04D68122D13D1D60893
:101FA00003F1200555F826005507EE0E0F25B54024
:101FB000A8435607F60E0D69B5402843D60803F12D
:101FC000200545F82600186856000325B540A843AB
:101FD0000D7905F003055600B540284318604D689B
:101FE000012D08D04D68022D05D04D68112D02D06D
:101FF0004D68122D13D1986856000325B540A843AB
:102000005600CD68B5402843986058680125954032
:10201000A8430D79C5F30015954028435860D8684A
:1020200056000325B540A84356008D68B5402843A7
:10203000D8604D6805F08055B5F1805F6DD100BF67
:10204000394D2D6E45F00105374E356635462D6EFE
:1020500005F00105009500BF00BF4FEAB6359608B0
:1020600055F8260095072E0F0F25B540A843B3F16C
:10207000904F02D1002515E04FE02C4DAB4201D12D
:1020800001250FE02A4DAB4201D102250AE0294D7E
:10209000AB4201D1032505E0274DAB4201D1042518
:1020A00000E007259607360FB5402843234D9608D4
:1020B00045F82600224D2868A0434D6805F4803578
:1020C000B5F5803F00D120431D4D28602D1D2868A7
:1020D000A0434D6805F40035B5F5003F00D120431D
:1020E000174D2D1D28602D1D2868A0434D6805F44F
:1020F0008015B5F5801F00D12043114D08352860AB
:102100002D1D2868A0434D6805F40015B5F5001F86
:1021100000D120430A4D0C352860521C0D68D54073
:10212000002D7FF42FAF78BD00100240000400485E
:1021300000080048000C004800100048080001405A
:1021400000040140024613690B400BB1012000E07E
:10215000002070470AB1816100E081627047000091
:1021600001480068704700003C00002070B504463C
:102170000CB9012070BD4CF6CC402168086045F2D6
:10218000555021680860D4E9001048602168A068B3
:102190008860FFF7E5FF054606E0FFF7E1FF401B1B
:1021A000302801D90320E5E72068C0680028F4D171
:1021B00020680169E068814203D02168E068086115
:1021C00003E04AF6AA20216808600020D2E7014611
:1021D0004AF6AA200A68106000207047024800688A
:1021E000401C0149086070473C00002010B50320E6
:1021F00000F0B6F8002000F005F800F017F8002015
:1022000010BD000070B50446074800684FF47A71AD
:10221000B0FBF1F5284601F073FD00222146501E67
:1022200000F05CF8002070BD6000002008B500BF21
:102230002148006E40F001001F4908660846006E04
:1022400000F00100009000BF00BF00BF0846806D95
:1022500040F0805088650846806D00F08050009006
:1022600000BF00BF032000F07BF8002211466FF092
:102270000B0000F033F8002211466FF00A0000F066
:102280002DF8002211466FF0090000F027F8002217
:102290001146501F00F022F800221146101F00F0D6
:1022A0001DF800221146901E00F018F80022114679
:1022B000501E00F013F808BD001002400146084609
:1022C000002809DB00F01F0301229A4043099B000C
:1022D00003F1E023C3F8002100BF70472DE9F05F50
:1022E00080460D461646002704F062FB0746394635
:1022F0002A46334601F00700C0F1070ABAF1040F7D
:1023000002D94FF0040A01E0C0F1070AD14600F1FA
:10231000040ABAF1070F02D24FF0000A01E0A0F15F
:10232000030AD4464FF0010A0AFA09FAAAF1010A8F
:102330000AEA020A0AFA0CFA4FF0010B0BFA0CFB3C
:10234000ABF1010B0BEA030B4AEA0B0421464046B2
:1023500004F036FB00F000B830BCBDE8C09F0000C0
:1023600000BF00F00702064B19684FF6FF03194043
:10237000044B0B4343EA0221014B196000BF704735
:102380000CED00E00000FA0502460021B2F5007FE6
:1023900029D11D48006800F4C060B0F5007F31D03D
:1023A0001948006820F4C06040F40070164B1860B3
:1023B00016480068164BB0FBF3F0322300FB03F124
:1023C00000E0491E31B11048406900F48060B0F56A
:1023D000806FF6D00C48406900F48060B0F5806FE3
:1023E00010D1032070470848006800F4C060B0F5C1
:1023F000806F07D00448006820F4C06040F480601B
:10240000014B18600020EDE70070004060000020E4
:1024100040420F000848006820F00700001D0649F0
:1024200008600648006840F004000449086000BFE6
:1024300000BF30BF704700000070004010ED00E0AA
:102440000248006800F4C06070470000007000405F
:102450000348006840F4807001490860704700003C
:10246000007000400348006840F004000149086023
:1024700070470000001002402DE9F8430446002692
:1024800000270025A846208800F40060B0F5006F02
:1024900026D1606C68B1B0F5000F03D0B0F5400FE5
:1024A0000ED10CE0D448C06840F48030D249C860F6
:1024B00008E00021201D02F0D1FA054602E001E00B
:1024C000012500BF00BF55B9CB488830006820F413
:1024D0004000616C0843C849C1F8880000E0A84684
:1024E000206800F40030B0F5003F74D14FF00009CF
:1024F000C148806D00F0805078B900BFBE48806D43
:1025000040F08050BC4988650846806D00F08050DE
:10251000009000BF00BF4FF00109B848006840F4C8
:102520008070B6490860FFF71BFE074606E0FFF71C
:1025300017FEC01B022801D9032505E0AF4800683B
:1025400000F480700028F2D000BF7DBBAA48903014
:10255000006800F44076CEB1A06DB04216D0A64817
:102560009030006820F44076A348D0F8900040F402
:102570008030A149C1F890000846D0F8900020F4BE
:102580008030C1F890000846C0F8906006F0010065
:10259000A8B1FFF7E5FD074609E0FFF7E1FDC01B25
:1025A00041F28831884202D9032507E016E09248BB
:1025B0009030006800F002000028EED000BF5DB946
:1025C0008D489030006820F44070A16D08438A491E
:1025D000C1F8900003E00CE0A84600E0A846B9F17D
:1025E000010F05D18448806D20F0805082498865B4
:1025F00000BF207800F0010048B17F4888300068B3
:1026000020F00300216A08437B49C1F88800207844
:1026100000F00200022809D177488830006820F0D5
:102620000C00616A08437449C1F88800207800F002
:102630000400042809D170488830006820F0300078
:10264000A16A08436C49C1F88800207800F0200096
:10265000202809D168488830006820F44060E16A89
:1026600008436549C1F88800208800F40070B0F57F
:10267000007F09D160488830006820F44020E16B79
:1026800008435D49C1F88800208800F48060B0F5F7
:10269000806F09D158488830006820F44010216CC0
:1026A00008435549C1F88800207800F040004028D0
:1026B00009D151488830006820F44050216B08430C
:1026C0004D49C1F88800207800F08000802809D1A9
:1026D00049488830006820F44040616B084346490F
:1026E000C1F88800208800F48070B0F5807F09D19F
:1026F00041488830006820F44030A16B08433E49CF
:10270000C1F88800206800F40020B0F5002F1FD128
:1027100039488830006820F04060A16C0843364991
:1027200088310860A06CB0F1006F06D13248C068F3
:1027300040F480103049C8600AE0A06CB0F1806FAE
:1027400006D10121201D02F089F9054605B1A846F0
:10275000206800F48020B0F5802F1FD126488830F3
:10276000006820F04060E16C08432349883108602C
:10277000E06CB0F1006F06D11F48C06840F48010D3
:102780001D49C8600AE0E06CB0F1806F06D10121FC
:10279000201D02F063F9054605B1A846208800F423
:1027A0008040B0F5804F14D113488830006820F085
:1027B0004050216D0843104988310860206DB0F108
:1027C000805F06D10221201D02F048F9054605B1BF
:1027D000A846208800F40040B0F5004F09D1064813
:1027E0008830006820F08040616D08430249C1F8DC
:1027F00088004046BDE8F8830010024000700040A9
:1028000070B504460D460CB9012070BD53480068F0
:1028100000F00700A8420ED25048006820F00700E0
:1028200028434E4908600846006800F00700A842A7
:1028300001D00120E9E7207800F00100002840D015
:102840006068032806D14648006800F00070D8B9D7
:102850000120DAE76068022806D14148006800F4E8
:10286000003088B90120D0E7606830B93C48006882
:1028700000F0020040B90120C7E73948006800F4C1
:10288000806008B90120C0E73548806820F0030067
:102890006168084332498860FFF762FC064608E039
:1028A000FFF75EFC801B41F28831884201D903208A
:1028B000ABE72B48806800F00C006168B0EB810F3B
:1028C000EED1207800F00200022807D12448806869
:1028D00020F0F000A1680843214988601F48006883
:1028E00000F00700A8420ED91C48006820F007003D
:1028F00028431A4908600846006800F00700A8420B
:1029000001D0012081E7207800F00400042807D1DD
:102910001348806820F4E060E1680843104988604B
:10292000207800F00800082808D10D48806820F4BD
:102930006050216940EAC1000949886000F01CF834
:1029400007498968C1F30311064A515CC84006492A
:1029500008600020FFF756FC002056E700200240E8
:10296000001002401879000860000020014800684B
:102970007047000060000020F0B500210023002413
:102980000225022200203B4EB66806F00C065EB11E
:10299000384EB66806F00C060C2E1ED1354EF66881
:1029A00006F00306012E18D1324E366806F00806EE
:1029B0002EB9304E94363668C6F3032103E02D4E0F
:1029C0003668C6F303112C4E56F82110294EB6680E
:1029D00006F00C0686B908460EE0264EB66806F0EC
:1029E0000C06042E01D1254806E0224EB66806F0FA
:1029F0000C06082E00D122481E4EB66806F00C06C2
:102A00000C2E36D11B4EF66806F00304194EF668FC
:102A1000C6F30216721C012C19D0022C02D0032C12
:102A200014D109E0154EB6FBF2F6124FFF68C7F35A
:102A3000062706FB07F313E0114EB6FBF2F60D4F27
:102A4000FF68C7F3062706FB07F309E000BFB1FBE9
:102A5000F2F6084FFF68C7F3062706FB07F300BF2F
:102A600000BF044EF668C6F34166761C7500B3FBE2
:102A7000F5F0F0BD00100240307900080024F400A9
:102A800000127A00F8B504460CB90120F8BD207890
:102A900000F0100010286ED1F848806800F00C009B
:102AA000002869D1F548006800F0020018B1A0695B
:102AB00008B90120EAE7F148216A006800F008003F
:102AC00020B1EE48006800F0F00005E0EB489430DB
:102AD000006800F47060000981421FD9206A02F08A
:102AE00083F808B10120D1E700BFE448006840F056
:102AF0000800E24908600846006820F0F000216AFA
:102B00000843DE49086000BF0846406820F47F4063
:102B1000E16940EA0120D94948601EE000BFD7487A
:102B2000006840F00800D54908600846006820F0B9
:102B3000F000216A0843D149086000BF0846406898
:102B400020F47F40E16940EA0120CC494860206AD6
:102B500002F04AF808B1012098E7FFF70DFFC749D6
:102B60008968C1F30311C64A515CC840C549086071
:102B70000020FFF747FB4AE0A06980B3BF48006828
:102B800040F00100BD490860FFF7EAFA054606E09B
:102B9000FFF7E6FA401B022801D9032076E7B74881
:102BA000006800F002000028F2D000BFB3480068BF
:102BB00040F00800B14908600846006820F0F000C5
:102BC000216A0843AD49086000BF0846406820F408
:102BD0007F40E16940EA0120A849486017E0FFE72B
:102BE000A648006820F00100A4490860FFF7B8FA81
:102BF000054606E0FFF7B4FA401B022801D903207E
:102C000044E79E48006800F002000028F2D12078D6
:102C100000F00100002868D09848806800F00C009F
:102C200008280BD09548806800F00C000C280ED1C5
:102C30009248C06800F00300032808D18F4800685C
:102C400000F4003088B3606878BB01201EE700BF45
:102C50006068B0F5803F06D18848006840F4803055
:102C6000864908601AE06068B0F5A02F0BD1834850
:102C7000006840F48020814908600846006840F4FC
:102C8000803008600AE07D48006820F480307B498D
:102C900008600846006820F48020086000BF606873
:102CA00090B1FFF75DFA054607E01EE0FFF758FA1E
:102CB000401B642801D90320E8E67048006800F44E
:102CC00000300028F2D010E0FFF74AFA054606E08F
:102CD000FFF746FA401B642801D90320D6E667486F
:102CE000006800F400300028F2D1207800F00200E3
:102CF00002285ED16148806800F00C0004280BD0E7
:102D00005E48806800F00C000C2818D15B48C06851
:102D100000F00300022812D15848006800F48060D7
:102D200018B1E06808B90120B0E65448406820F0C6
:102D3000F850217C40EA01605049486039E0E06881
:102D400000B34E48006840F480704C490860FFF7BB
:102D500007FA054606E0FFF703FA401B022801D9EF
:102D6000032093E64548006800F480600028F2D014
:102D70004248406820F0F850217C40EA01603F4919
:102D8000486016E03D48006820F480703B490860C8
:102D9000FFF7E6F9054606E0FFF7E2F9401B0228D7
:102DA00001D9032072E63548006800F480600028ED
:102DB000F2D1207800F00800082836D16069D0B13F
:102DC0002E489430006840F001002C49C1F894006E
:102DD000FFF7C6F9054606E0FFF7C2F9401B0228D7
:102DE00001D9032052E625489430006800F0020023
:102DF0000028F1D019E021489430006820F001004B
:102E00001E49C1F89400FFF7ABF9054606E0FFF74D
:102E1000A7F9401B022801D9032037E61748943050
:102E2000006800F002000028F1D1207800F00400D2
:102E300004286ED100261148806D00F0805070B9D2
:102E400000BF0E48806D40F080500C4988650846F0
:102E5000806D00F08050009000BF00BF01260A483E
:102E6000006800F48070F0B90748006840F4807092
:102E700005490860FFF774F905460EE000100240AE
:102E8000187900086000002000700040FFF768F922
:102E9000401B022801D90320F8E59D48006800F492
:102EA00080700028F2D000BFA068012808D199489E
:102EB000006840F0010097499039C1F8900021E086
:102EC000A06805280FD19348006840F0040091499C
:102ED0009039C1F890000846D0F8900040F0010009
:102EE000C1F890000EE08B48006820F0010089498D
:102EF0009039C1F890000846D0F8900020F0040006
:102F0000C1F8900000BFA068A0B1FFF729F90546FD
:102F100009E02DE0FFF724F9401B41F28831884297
:102F200001D90320B2E57B48006800F002000028C8
:102F3000F0D012E0FFF714F9054608E0FFF710F9AA
:102F4000401B41F28831884201D903209EE5714837
:102F5000006800F002000028F0D1012E07D16D4872
:102F60009038806D20F080506A499039886500BFA4
:102F7000207800F02000202838D1606AD8B1654858
:102F80000830006840F0010062499039C1F89800AB
:102F9000FFF7E6F8054606E0FFF7E2F8401B0228D7
:102FA00001D9032072E55B480830006800F0020098
:102FB0000028F1D01AE057480830006820F00100DE
:102FC00054499039C1F89800FFF7CAF8054606E061
:102FD000FFF7C6F8401B022801D9032056E54D48EB
:102FE0000830006800F002000028F1D1A06AE8B3C0
:102FF00048489038806800F00C000C2874D0A06A13
:10300000022853D143489038006820F0807041492D
:1030100090390860FFF7A4F8054606E0FFF7A0F82E
:10302000401B022801D9032030E53A489038006857
:1030300000F000700028F1D1206B401E0101606B90
:1030400041EA0020E16A0843A18F0122C2EB51014D
:1030500040EA41514020005DC2EB500041EA40612E
:103060003820005D41EAC0602A4900E04EE0903916
:10307000C8600846006840F0807008600846C06874
:1030800040F08070C860FFF76BF8054606E0FFF778
:1030900067F8401B022801D90320F7E41D48903847
:1030A000006800F000700028F1D02FE01948903837
:1030B000006820F080701749903908600846006861
:1030C00000F0006020B90846C06820F00300C86026
:1030D00010489038C068104908400E499039C860BF
:1030E000FFF73EF8054607E00EE0FFF739F8401B12
:1030F000022801D90320C9E406489038006800F08E
:1031000000700028F1D101E00120BFE40020BDE4FF
:103110000070004090100240FFFFEEFE10B5044624
:103120000CB9012010BD2068006820F00C00216857
:1031300008602068406820F06000216848602046F0
:1031400000F06AF800206071A06000BF207100BF2D
:1031500000BFE7E72DE9F04104460D4600260027B1
:1031600000BF2079012802D10220BDE8F0810120B2
:10317000207100BF6079012820D102206071FEF724
:10318000EFFF06460CE0FEF7EBFF801B022807D995
:103190000420607100BF0020207100BF0320E4E71D
:1031A0002068406800F001000028ECD020688068AA
:1031B000E060E06828600120607100E0012700BF46
:1031C0000020207100BF3846CFE710B5044604F157
:1031D0000C012046FFF7BEFF08B9E06810BD0020D3
:1031E000FCE710B504460CB9012010BD607920B988
:1031F00000202071204600F01DF802206071206838
:10320000006840F00400216808600120607100201F
:10321000A06000BFE9E700000549C96A41F48021C8
:10322000034AD1621146C96A21F48021D1627047F4
:103230000010024010B598B004464FF48020019071
:103240004FF04060149001A8FFF716F900BF07483F
:10325000C06C40F480200549C8640846C06C00F486
:103260008020009000BF00BF18B010BD00100240C9
:1032700002460023106800F1500303EB8103186835
:10328000704710B50023046804F1500303EB810379
:103290001A6010BD70B50446002500BF94F82000E8
:1032A000012801D1022070BD012084F8200000BF58
:1032B000022084F8210000BFCA2021684862532000
:1032C0002168486200BF2068806820F4806021681F
:1032D00088602068806820F4804021688860FEF75C
:1032E0003FFF054614E0FEF73BFF401BB0F57A7F39
:1032F0000ED900BFFF202168486200BF032084F878
:10330000210000BF002084F8200000BF0320CAE78E
:103310002068C068C0F380000028E4D000BFFF2010
:103320002168486200BF012084F8210000BF00200E
:1033300084F8200000BF00BFB5E700002DE9F04190
:1033400004460D461646002700BF94F820000128C9
:1033500002D10220BDE8F081012084F8200000BFE6
:10336000022084F8210000BFCA202168486253204F
:103370002168486200BF2068806800F48060F0B176
:10338000FEF7EEFE074614E0FEF7EAFEC01BB0F5BE
:103390007A7F0ED900BFFF202168486200BF03205A
:1033A00084F8210000BF002084F8200000BF032023
:1033B000D0E72068C068C0F380000028E4D120680E
:1033C000806820F48060216888602068C06800F010
:1033D000800060F490602168C860FEF7C1FE074677
:1033E00014E0FEF7BDFEC01BB0F57A7F0ED900BF1A
:1033F000FF202168486200BF032084F8210000BF3D
:10340000002084F8200000BF0320A3E72068C068E4
:10341000C0F380000028E4D02068456120688068FF
:1034200020F00700216888602068806830432168A8
:1034300088601448006840F4801012490860114800
:103440000830006840F480100E4908310860206898
:10345000806840F48040216888602068806840F47B
:1034600080602168886000BFFF202168486200BF3B
:10347000012084F8210000BF002084F8200000BF54
:1034800000BF67E7000401407047000010B5044624
:103490004FF480100A4908602068C068C0F380209B
:1034A00050B12068C06800F0800060F4906021682E
:1034B000C8602046FFF7E8FF012084F8210010BD16
:1034C0001404014010B504460CB9012010BD94F855
:1034D000210028B9002084F82000204600F066F87A
:1034E000022084F8210000BFCA20216848625320CE
:1034F0002168486200BF204601F0E0FB48B100BFF0
:10350000FF202168486200BF042084F821000120C8
:10351000DCE72068806824490840216888602169C8
:1035200060680843A16908432168896808432168E5
:1035300088602168E068086120680169208941EAA3
:103540000040216808612068C06820F08000216880
:10355000C8602068806800F0200068B9204600F04C
:1035600053F848B100BFFF202168486200BF042023
:1035700084F821000120A9E72068C06C20F0030036
:103580002168C8646169E06908432168C96C08431F
:103590002168C86400BFFF202168486200BF012085
:1035A00084F82100002091E7BFFF8FFF10B5A8B07D
:1035B000044604201790002021900120199017A89C
:1035C000FFF760FA08B100BFFEE74FF4003000904B
:1035D000401216906846FEF74FFF08B100BFFEE7A5
:1035E0000848006840F4004006499039C1F890004E
:1035F000002211460320FEF771FE0320FEF75EFE57
:1036000028B010BD9010024070B504460025206817
:10361000C06820F0A0002168C860FEF7A1FD054643
:1036200007E0FEF79DFD401BB0F57A7F01D903202E
:1036300070BD2068C06800F020000028F1D0002094
:10364000F6E708B50146002209E0501CC2B208683E
:10365000C068009000BF042A01D1032008BD08689B
:10366000806800F4C0600028EFD100BFF6E770B5B5
:1036700004460CB9012070BD606A00B900BF00218A
:10368000A16294F85D0028B9002084F85C0020460F
:1036900000F04EF8022084F85D002068006820F0F9
:1036A000400021680860E068B0F5E06F01D90025AE
:1036B00001E04FF48055E068B0F5706F05D0E06828
:1036C000B0F5E06F01D00021A162206B40B9E06845
:1036D000B0F5E06F02D90221216301E001212163ED
:1036E000D4E9010108432169084361690843218B3A
:1036F00001F400710843E1690843216A0843A16AA3
:103700000843216808600421A06901EA1040616A49
:103710000843616B0843E168084328432168486017
:1037200000202066012084F85D000020A3E700004F
:1037300010B586B004464949206888427DD100BF53
:103740004748006E40F48050454908660846006EC0
:1037500000F48050009000BF00BF00BF0846806C9E
:1037600040F0010088640846806C00F00100009081
:1037700000BF00BF00BF0846C06C40F00100C86435
:103780000846C06C00F00100009000BF00BF202080
:1037900001900220029003900320049005200590E0
:1037A00001A94FF09040FEF7E7FB40200190052073
:1037B000059001A94FF09040FEF7DEFB80200190BC
:1037C0000520059001A94FF09040FEF7D5FB254854
:1037D00025490860012048601021234881600021AC
:1037E000C16080210161002141618161C16101628B
:1037F000FEF712FA00BF1C486065846200BF1948DA
:1038000014381A4908600120486000211748816077
:10381000C16080210161002141618161C1614FF47A
:1038200000510162FEF7F8F900BF1048A0658462FC
:1038300000BF012211460D2000E00CE0FEF74EFD16
:103840000D20FEF73BFD002201210C20FEF746FD76
:103850000C20FEF733FD06B010BD00000030014023
:10386000001002403000024074010020BC01002022
:103870002DE9F84304460D4617461E464FF0000852
:10388000C14600BF94F85C00012802D10220BDE8C7
:10389000F883012084F85C0000BFFEF761FC8046DD
:1038A00094F85D00012802D04FF00209B2E005B1A2
:1038B00017B94FF00109ADE0032084F85D00002046
:1038C0002066A563A787E7872064A4F84400A4F8CE
:1038D00046002065E064A068B0F5004F05D120687F
:1038E000006840F48040216808602068006800F0AB
:1038F0004000402805D02068006840F04000216862
:103900000860E068B0F5E06F2AD9606810B1E08F18
:10391000012806D128882168C860AD1CE08F401EB0
:10392000E08719E02068806800F00200022807D1D3
:1039300028882168C860AD1CE08F401EE0870BE03E
:103940003EB1701C40B1FEF70BFCA0EB0800B0428A
:1039500002D34FF003095DE0E08F0028E2D13FE0A1
:10396000606810B1E08F012811D1E08F012807D9DC
:1039700028882168C860AD1CE08F801EE08706E0C3
:1039800015F8010B21680873E08F401EE08724E0E2
:103990002068806800F00200022812D1E08F012820
:1039A00007D928882168C860AD1CE08F801EE08799
:1039B00013E015F8010B21680873E08F401EE087C3
:1039C0000BE03EB1701C40B1FEF7CAFBA0EB080053
:1039D000B04202D34FF003091CE0E08F0028D7D19A
:1039E00042463146204601F0F7F908B12020206612
:1039F000A06850B900BF002000902068C068009007
:103A000020688068009000BF00BF206E08B14FF0B2
:103A1000010900BF012084F85D0000BF002084F888
:103A20005C0000BF484632E72DE9FC5F04460D46C6
:103A300016461F46DDF830804FF0000A0020019046
:103A400081464FF0010B009000BF94F85C00012804
:103A500002D1022000F02AB9012084F85C0000BFE6
:103A6000FEF77EFB814694F85DA060680190BAF194
:103A7000010F0BD00198B0F5827F04D1A06810B976
:103A8000BAF1040F02D00220009005E10DB106B199
:103A900017B901200090FFE094F85D00042802D0DF
:103AA000052084F85D00002020662664A4F8467096
:103AB000A4F84470A563E787A787E0642065E06801
:103AC000B0F5E06F03D8B4F84600012806D92068A5
:103AD000406820F480502168486005E02068406814
:103AE00040F48050216848602068006800F0400081
:103AF000402805D02068006840F040002168086038
:103B0000E068B0F5E06F47D9606810B1E08F012838
:103B100006D128882168C860AD1CE08F401EE08770
:103B200032E0BBF1000F10D0E08F70B120688068E8
:103B300000F00200022808D128882168C860AD1C66
:103B4000E08F401EE0874FF0000BB4F8460078B1DC
:103B50002068806800F0010050B12068C0683080A3
:103B6000B61CB4F84600401EA4F846004FF0010B06
:103B700008F1010040B1FEF7F3FAA0EB090040455F
:103B800002D30320009087E0E08F0028C9D1B4F869
:103B900046000028C5D174E0606810B1E08F0128AC
:103BA00011D1E08F012807D928882168C860AD1C91
:103BB000E08F801EE08706E015F8010B216808738E
:103BC000E08F401EE08755E0BBF1000F1BD0E08F77
:103BD000C8B12068806800F00200022813D1E08F8D
:103BE000012807D928882168C860AD1CE08F801E95
:103BF000E08706E015F8010B21680873E08F401E8E
:103C0000E0874FF0000BB4F8460038B320688068B6
:103C100000F0010010B3B4F84600012813D9206861
:103C2000C0683080B61CB4F84600801EA4F8460078
:103C3000B4F8460001280FD82068406840F480504E
:103C40002168486008E02068007B06F8010BB4F8A2
:103C50004600401EA4F846004FF0010B08F1010099
:103C600040B1FEF77DFAA0EB0900404502D30320E6
:103C7000009011E0E08F0028A6D1B4F8460000289B
:103C8000A2D14A464146204601F0A6F818B10120CB
:103C900000902020206600BF012084F85D0000BF56
:103CA000002084F85C0000BF0098D3E63CBCBDE86F
:103CB000C09F042808D14FF0E021096941F00401B8
:103CC0004FF0E022116107E04FF0E021096921F097
:103CD00004014FF0E02211617047000006480068BF
:103CE000401C054908600548006820B10348006889
:103CF000401E024908607047180000201000002094
:103D000070B504462546681EB0F1807F01D30120BE
:103D10000FE0681E4FF0E02148610F214FF0FF30A7
:103D200002F04EFE00204FF0E0218861072008617C
:103D3000002070BD10B5FFF7D1FF10BD7047704770
:103D400001460022002391F8712091F8723042EA76
:103D5000030070472DE9F04104462068C5692068DA
:103D600006682068876805F00F08B8F1000F0CD1CD
:103D700005F0200048B106F0200030B1206E10B1EF
:103D80002046216E8847BDE8F081B8F1000F7FD052
:103D900007F0010018B906F49070002878D005F0FB
:103DA000010048B106F4807030B10120216808623A
:103DB000606F40F00100606705F0020048B107F055
:103DC000010030B1022021680862606F40F00400F9
:103DD000606705F0040048B107F0010030B104202D
:103DE00021680862606F40F00200606705F008001B
:103DF00060B106F0200010B907F0010030B10820D2
:103E000021680862606F40F008006067606F78B3F7
:103E100005F0200038B106F0200020B1206E10B16E
:103E20002046216E8847606F00F0080028B920689E
:103E3000806800F04000402824D1204602F0A2FC17
:103E40002068806800F04000402817D12068806812
:103E500020F0400021688860E06E58B11F48E16E94
:103E60008863E06EFDF7A9FE10B1E06E816B8847B4
:103E70000DE00DE02046FFF762FF08E02046FFF767
:103E80005EFF04E02046FFF75AFF002060677AE7F4
:103E900005F4801050B107F4800038B14FF4801061
:103EA000216808622046FFF749FF6CE705F08000B3
:103EB00040B106F0800028B1606E10B12046616EFE
:103EC000884760E705F0400030B106F0400018B1C7
:103ED000204602F069FC56E700BF54E76D67000812
:103EE00010B5034693F87200202862D101B10AB9D7
:103EF000012010BD00BF93F87000012801D10220FD
:103F0000F7E7012083F8700000BF5965A3F8582037
:103F1000A3F85A200020186600BF9868B0F5805FAB
:103F20000AD1186920B940F2FF10A3F85C001CE028
:103F3000FF20A3F85C0018E0986848B9186918B920
:103F4000FF20A3F85C0010E07F20A3F85C000CE0E9
:103F50009868B0F1805F08D1186918B97F20A3F87C
:103F60005C0002E03F20A3F85C0000BF002058671F
:103F7000222083F872001868806840F001001C68F5
:103F8000A0609868B0F5805F04D1186910B90A483C
:103F9000186601E00948186600BF002083F8700029
:103FA00000BF1868006840F490701C682060002012
:103FB0009FE702209DE70000CB67000837680008F4
:103FC0001D4A0168914236D11C49098801F400411B
:103FD00089BB1A49098801F4804171B118490978EF
:103FE0000A2903D00021154A118024E013490988C9
:103FF00041F40041114A11801DE0114909780D2951
:1040000006D10E49098841F480410C4A118012E022
:104010000B490978094A1288C2F30D02094B9954D9
:1040200006490988491C054A118011460988132947
:1040300001DD00211180704700380140640000203C
:104040006A000020A80200207047000070B500241C
:104050007F480078012845D17E4A50687E4A916C9D
:10406000884700207A4908707C49087003207C4901
:10407000087032E0784800231A46456D7948018877
:104080000088A847784B04220E21104602F0AEF9B2
:1040900046207649086072480078401E70490870D2
:1040A00013E073480078012804D101F09BFC002044
:1040B0006F49087000F050FC0446012C05D100F057
:1040C00063F90446052C00D103E068480068002825
:1040D000E7D100BF052C00D103E06148007800283B
:1040E000C8D100BF6348007801280DD10020614984
:1040F00008705D4B04220E2102F078F91E20FDF7B6
:1041000011FEFCF759FF9AE05A4800780228FAD1CC
:10411000504A5068504A916C8847002055490870B1
:104120004E4908705020514908604B4800231A46F8
:10413000456D4C4801880088A8474B4B0322042159
:10414000012002F053F975E049480078012804D1B4
:1041500001F048FC00204649087000F0FDFB0446D1
:10416000012C67D100F010F90446032C62D102F053
:10417000B7FB4148006843F69821B0FBF1F201FB20
:10418000120000EE100AB8EE400A3C4880ED000A2A
:10419000D0ED000A3A4890ED000AB8EE400A30EE41
:1041A000800AF3EE070A30EE600ABCEEC00A80ED2A
:1041B000000A3148006833490968B0FBF1F201FB9D
:1041C000120043F69821B0FBF1F52A4601212E4852
:1041D000FFF757F800F0B6FD2A4800684FF47A71EF
:1041E000B0FBF1F029490870294800784870294847
:1041F0000078887020480068000EC8701E4800686B
:10420000000C08711C480088000A48711A480078A0
:10421000887121480088000AC8711F480078087218
:104220000B4601220B21052002F0E0F81E20FDF7CD
:1042300079FD03E00D480068002885D100BF0648DD
:10424000816B0020884702F029F8002070BD000033
:1042500021000020687A00086479000884000020AA
:1042600020000020C60000200C01002010000020CB
:1042700090000020220000209C0000203800002038
:1042800014000020980000207C050020160100206A
:10429000A0000020AC000020A400002010B533488E
:1042A000006850B9012032490870FEF7D1F80022A9
:1042B00011463048FEF7E5FF56E02C48006801281B
:1042C00052D1002029490860FEF7C2F8012129488F
:1042D000FEF7CEFF2849086008460068C0BB0021F1
:1042E0002448FEF7C5FF2549086008460068401CC1
:1042F00008600846002102681E48FEF7C2FF2048F9
:10430000006843F69821B0FBF1F01C490968B1FB45
:10431000F0F200FB121010B901201549087019487D
:10432000008817490968484343F69821B0FBF1F02B
:1043300012490968B1FBF0F200FB1210A0B902208B
:104340000B490870002211460A48FEF79AFF0BE05D
:10435000FFE709480068401E074908600846012138
:1043600002680448FEF78DFF10BD0000CC28004015
:10437000220000207C0500207C000020800000201E
:1043800098000020A00000202DE9F04786B000240E
:104390000026A046A146002001900290002500279B
:1043A0008246CE484078011DCC48801C00F0AEFC0F
:1043B0008246CA480078C0F3C007C8480078001198
:1043C0008DF80C00C54840788DF80D00C348D0F832
:1043D00002100191C088ADF8080001A9C048FBF7A0
:1043E00003FF00F0FF0800208DF81400B8F1000F63
:1043F00072D100BF05E0B949095C3144CEB2411C1D
:10440000C8B2B649497808318142F4DCB3484078F3
:104410000830B249085CB042EAD19DF80C00082887
:1044200007D2DFE800F004070AA6F8F7F6F54FF028
:1044300000094EE14FF001094BE10824002F7DD126
:104440008EE0A648055D042D51D007DC6DB1012D2D
:1044500020D0022D2BD0032D1BD13EE0052D47D0BF
:10446000062D46D0FF2D7AD144E09C49201D085CE2
:1044700001069A4AE01C105C01EB0041A01C105C94
:1044800001EB0021601C105C084496490860601D27
:10449000C4B264E09149601C095C904AA01C105CA5
:1044A00001EB002090490880E01CC4B257E08B4922
:1044B000201D085C0106894AE01C105C01EB0041EC
:1044C000A01C105C01EB0021601C105C08448749B3
:1044D0000860601DC4B242E0FCE08049601C085CDA
:1044E00000EB800082490870A01CC4B237E036E0BF
:1044F00035E034E07948007B00067849C97A00EB62
:1045000001407649897A00EB01207449497A0844D0
:10451000744908607148407B7049897B00EB012039
:10452000714908806D48807C00066C49497C00EB2D
:1045300001406A49097C00EB012000E016E0674970
:10454000C97B0844694908606448C07C00EB80006E
:10455000674908709DF80D000830C4B200BF00BF65
:104560009DF80D000830A0423FF76BAF4FF00209F5
:10457000AFE00824002F7DD191E05848055D042D5F
:1045800054D007DC6DB1012D20D0022D2BD0032D8E
:104590001BD141E0052D4AD0062D49D0FF2D7DD1FC
:1045A00047E04E49201D085C01064C4AE01C105CA7
:1045B00001EB0041A01C105C01EB0021601C105CB1
:1045C000084448490860601DC4B267E04349601C64
:1045D000095C424AA01C105C01EB002042490880A3
:1045E000E01CC4B25AE03D49201D085C01063B4A6C
:1045F000E01C105C01EB0041A01C105C01EB0021F1
:10460000601C105C084439490860601DC4B245E074
:104610005CE058E04FE04BE03049601C085C00EB88
:10462000800033490870A01CC4B237E036E035E0A2
:1046300034E02A48007B00062849C97A00EB014093
:104640002649897A00EB01202449497A0844254902
:1046500008602248407B2149897B00EB01202249E8
:1046600008801E48807C00061C49497C00EB014004
:104670001A4900E019E0097C00EB01201749C97BC9
:1046800008441A4908601548C07C00EB80001849AE
:1046900008709DF80D000830C4B200BF00BF9DF83F
:1046A0000D000830A0423FF768AF4FF0030910E05B
:1046B0004FF004090DE0022D02D101200D490870D0
:1046C0004FF0050905E04FF0060902E04FF006093A
:1046D00000BF00BF484606B0BDE8F087BE250020F9
:1046E0002900002098000020A00000209C0000204D
:1046F000AC000020B000002000BFFEE710B5FDF7C1
:1047000075FD01F0B5FFFCF7F7FC01F083FF10BD6C
:104710008168024A1140491C81607047C0FFFF7FD9
:104720000146886800F0E0707047024602F16000C0
:1047300000EB8103186800F0F84070470146886874
:10474000C0F30070704701468868C0F3800070476E
:104750008168024A1140091D81607047C0FFFF7FD8
:1047600070B501F000744FF0007595FAA5F5B5FA33
:1047700085F5EC4000F1140505EB840301F0F875B4
:104780004FF0F87696FAA6F6B6FA86F6F5400726C2
:10479000AE401C68B44301F0F8754FF0F87696FA15
:1047A000A6F6B6FA86F6F54002FA05F52C431C602B
:1047B00070BD826822F0E0720A438260704710B5D3
:1047C00000F1600404EB81031C6824F000441443EE
:1047D0001C6010BD0146B1F5807F38D012DC102975
:1047E00030D008DC012925D0022925D0042925D084
:1047F00008292FD124E0202926D0402925D080293E
:1048000028D123E0B1F5805F27D009DCB1F5007F26
:104810001ED0B1F5806F1ED0B1F5006F1AD11BE02C
:10482000B1F5005F1AD0B1F5804F18D0B1F5004F47
:1048300010D115E0062070470720FCE70820FAE7B2
:104840000920F8E70A20F6E700BF00BF00BF00BF5D
:104850001720F0E700BF00BF00BF00BF00BF00BFD0
:104860002820E8E700B587B01A481B4908600020F7
:104870004860002118488160C160016104214161E4
:1048800000218161C1610121016200214162C16297
:10489000016341634FF4805181630021C163FCF7E0
:1048A000B9FF08B1FCF712FA0C48019006200290FB
:1048B000002003907F2004900420059000200690A3
:1048C00001A90548FCF724FD08B1FCF7FFF907B082
:1048D00000BD00000000045014050020010000800D
:1048E00010B50948094908600620486040F6FF7184
:1048F0000648C16040F6A5618160FDF737FC08B14C
:10490000FCF7E4F910BD000000300040B0050020C5
:1049100000BFFEE7704700000120014908707047A2
:10492000840000200321014A117070478400002098
:1049300002200149087070478400002004200149CA
:1049400008707047840000200520014908707047F6
:10495000840000207047000038B5002439480078F2
:1049600006286BD2DFE800F0690330431D56364855
:104970001E223649036E36489847334800231A46AC
:10498000456D344801880088A8472F48C16D3248DA
:104990000068009088472B48047800202949087057
:1049A0004DE0294800231A46456D2A4801880088B1
:1049B000A8472548C16D2848006800908847002016
:1049C0002049087004243AE01F4800231A46456D28
:1049D000204801880088A8471B48C16D1E48006810
:1049E00000908847002017490870022427E01648E5
:1049F00000231A46456D174801880088A8471248C9
:104A0000C16D154800680090884700200D49087066
:104A1000032414E00C4800231A46456D0D48018814
:104A20000088A8470848C16D0B4800680090884777
:104A3000002004490870052401E000E000BF00BF29
:104A4000204638BD8400002064790008C0000020A2
:104A5000BE250020C4000020D40000202DE9F04134
:104A600004460E46002700255B48C06800F003009E
:104A700090B15948C06800F003002168884209D10C
:104A8000206838B15448C068C0F30210401C616807
:104A9000884233D0012531E02068012804D0022863
:104AA00009D003281AD10DE04B48006800F002003D
:104AB00000B9012514E04848006800F4806000B99E
:104AC00001250DE04448006800F4003028B9424850
:104AD000006800F4802000B9012501E0012500BF35
:104AE00000BF5DB9D4E90010401E41EA00103A4908
:104AF000C96821F0730108433749C860002D67D1A8
:104B00003548006820F0806033490860FDF728FBD5
:104B1000074606E0FDF724FBC01B022801D9032548
:104B200005E02D48006800F000600028F2D100BFC9
:104B3000C5BB66B9A0680002217B40EAC160264976
:104B40000969264A114008432349086120E0012EE3
:104B50000FD1A0680002218A0122C2EB510140EA74
:104B600041501D4909691E4A114008431A4908610C
:104B70000EE0A0680002217D0122C2EB510140EA53
:104B8000416015490969174A1140084312490861F3
:104B90001148006840F080600F490860FDF7E0FAB6
:104BA000074607E014E0FDF7DBFAC01B022801D935
:104BB000032505E00848006800F000600028F2D0F6
:104BC00000BF2DB904480069A16908430249086182
:104BD0002846BDE8F081000000100240FF80FF077A
:104BE000FF809FFFFF80FFF9F8B5044600260025EF
:104BF0002348806D00F0805018B1FDF721FC064677
:104C000016E000BF1E48806D40F080501C4988654A
:104C10000846806D00F08050009000BF00BFFDF797
:104C20000FFC06461648806D20F0805014498865B8
:104C3000B6F5007F07D1802C10D9A02C01D9022510
:104C40000CE001250AE0802C01D9032506E0802C28
:104C500001D1022502E0702C00D10125094800682D
:104C600020F007002843074908600846006800F064
:104C70000700A84201D00120F8BD0020FCE7000099
:104C8000001002400020024010B50A480A4908609E
:104C9000002048607F2108488160FF21C160002119
:104CA00001618161C161FEF70DFC08B1FCF70EF8EE
:104CB00010BD0000002800407C05002070B50446AF
:104CC00000252068C06800F04000A0B9681E216877
:104CD000C860FDF745FA054607E0FDF741FA401BBD
:104CE000B0F57A7F01D9032070BD2068C06800F05C
:104CF00040000028F1D00020F6E7000010B502487F
:104D0000FEF7C4FB10BD00007C05002070B5024614
:104D10000C46FF25FF2309E012F8010B80EA05018C
:104D20000648405C80EA03050548435C201EA4F168
:104D30000106B4B2F0D143EA052070BDE07A000864
:104D4000E07B00087FB500200390002402900190D2
:104D500000250026009004221A4903A8FCF7C3F896
:104D60000398401C10B118490398086002221549A5
:104D7000091D02A8FCF7B7F8BDF808004FF6FF714F
:104D8000884203D0BDF808001049088001220D496F
:104D90000D316846FCF7A7F89DF80000FF2803D006
:104DA0009DF800000A490870042206490B3101A849
:104DB000FCF799F80198401C10B106490198086069
:104DC0007FBD000000F0010898000020A000002036
:104DD000AC000020A4000020F8B504460E4615469D
:104DE000334600224FF4C0512046009500F026F8CB
:104DF00028B1206E40F0200020660320F8BD334625
:104E0000002280212046009500F070F828B1206E25
:104E100040F0200020660320F0E7334600224FF4E4
:104E2000C0612046009500F009F828B1206E40F0DE
:104E3000200020660320E1E70020DFE72DE9F843AA
:104E400004460E4617461D46DDF8208047E0B6F5BD
:104E5000C06F05D127B92068007B00909DF8000045
:104E6000681CD8B32DB1FDF77BF9A0EB0800A84270
:104E700035D32068406820F0E00021684860606811
:104E8000B0F5827F0DD1A068B0F5004F03D0A068C7
:104E9000B0F5806F05D12068006820F040002168DF
:104EA0000860A06AB0F5005F0DD100BF20680068FF
:104EB00020F40050216808602068006840F4005029
:104EC0002168086000BF012084F85D0000BF002059
:104ED00084F85C0000BF0320BDE8F883FFE720688A
:104EE00080683040B842B2D10020F5E72DE9F041AA
:104EF00004460E4617461D46DDF818803EE0681C45
:104F0000D8B32DB1FDF72CF9A0EB0800A84235D39A
:104F10002068406820F0E000216848606068B0F5D3
:104F2000827F0DD1A068B0F5004F03D0A068B0F526
:104F3000806F05D12068006820F04000216808607B
:104F4000A06AB0F5005F0DD100BF2068006820F4B2
:104F50000050216808602068006840F40050216813
:104F6000086000BF012084F85D0000BF002084F8C5
:104F70005C0000BF0320BDE8F081FFE72068806887
:104F80003040B04201D1012000E00020B842B6D14B
:104F90000020F0E7704701B582B09DF80800C0F32B
:104FA000401040019DF80810C1F3001140EA0110C3
:104FB0009DF80810C1F3C00140EAC1009DF8081037
:104FC000C1F3800140EA81009DF80810C1F340015F
:104FD00040EA41009DF8081001F0010108430190EA
:104FE000012201A9892000F08FFC0EBD38B50446CE
:104FF000200A8DF80000E0B28DF801000222694617
:10500000972000F081FC38BD10B54FF4AA7000F075
:10501000EDFB044640F2531000F0E8FB44EA0020A8
:1050200010BD000030B52DED0A8B81B0002000903E
:1050300000249FED3A0BB0EE408AF0EE608A00F05B
:105040003DFA03285FD006DC00285DD0012807D098
:1050500002285AD105E0042854D00F2855D150E039
:1050600000BF40F6541000F0C1FB8DF8000040F680
:10507000551000F0BBFB8DF8010040F6561000F013
:10508000B5FB8DF802009DF8000000049DF80110AA
:1050900040EA01209DF8021040EA0104C4F3130421
:1050A00000F060F80546FBF740FA41EC1C0B53ECAE
:1050B0001C2B9FED1C0B51EC100BFBF7C7F941ECBF
:1050C0001B0B9FED1A0B53EC102BFBF74AF941EC2D
:1050D000190B1421204601F07BF90546FBF725FA50
:1050E00041EC1B0B9FED130B53EC102BFBF739F925
:1050F00041EC1A0B53EC192BFBF7A8F941EC180BF8
:1051000003E000BF00BF00BF00BF00BFB0EE480A11
:10511000F0EE680A01B000F011B830BD00000000E8
:1051200000000000000000000000994000000000A6
:1051300000408F40CDCCCCCCCCCCF83FBDEC088B24
:10514000BDEC02CBFFF7E9BF08B502226946152086
:1051500000F014FB9DF801009DF8001040EA0120CA
:1051600008BD000000200B4909780A290BD0182936
:1051700007D0262903D0342907D1074807E007487C
:1051800005E0074803E0074801E0002000BF00BF3A
:10519000704700008700002075190300EA320600FE
:1051A000D4650C00A8CB18000148007870470000B7
:1051B000850000201CB50446052269461D2000F02C
:1051C000DDFA00F07BF920702078032873D005DC2D
:1051D00048B101285AD0022857D158E004286BD092
:1051E0000F28F9D162E19DF80010484200EBD07120
:1051F000491049B261709DF80110484200EBD0712E
:1052000049104AB2A2709DF802008009E17860F36B
:105210000001E1709DF802004009E17860F341016E
:10522000E1709DF802000009E17860F38201E1700D
:105230009DF80200C008E17860F3C301E1709DF8B9
:1052400002008008E17860F30411E1709DF802002B
:105250004008E17860F34511E1709DF80200E178C3
:1052600060F38611E1709DF803004009217960F335
:10527000000121719DF80300217960F34101217142
:105280009DF8040000F00700607115E100BF9DF873
:105290000010484200EBD071491049B261709DF88E
:1052A0000120802A09DA9DF80110CA1701EB9272D9
:1052B0009210A2700BE04DE0ADE09DF80120A2F548
:1052C0008070C21700EB9272921053B2A3709DF8D7
:1052D00002008009E17860F30001E1709DF80200AE
:1052E0004009E17860F34101E1709DF80200000996
:1052F000E17860F38201E1709DF80200C008E17876
:1053000060F3C301E1709DF802008008E17860F36A
:105310000411E1709DF802004008E17860F3451146
:10532000E1709DF80200E17860F38611E1709DF86C
:1053300003004009217960F3000121719DF8030009
:10534000217960F3410121719DF8040000F007000C
:105350006071B1E09DF80010484200EBD071491037
:1053600049B261709DF80110484200EBD0714910BC
:105370004AB2A2709DF802008109E07861F3000052
:10538000E0709DF802004109E07861F34100E070AF
:105390009DF802000009E17860F38201E1709DF858
:1053A0000200C008E17860F3C301E1709DF80200DB
:1053B0008008E17860F30411E1709DF80200400874
:1053C000E17860F34511E1709DF80200E17860F347
:1053D0008611E1709DF803008109207961F30100D5
:1053E00020719DF803004009217960F38201217149
:1053F0009DF803000009217960F3C30121719DF834
:105400000300217960F3041121719DF8040000F07C
:105410000700607150E09DF80010484200EBD07129
:10542000491049B261709DF80110484200EBD071FB
:1054300049104AB2A2709DF802008009E17860F339
:105440000001E1709DF802004009E17860F341013C
:10545000E1709DF802000009E17860F38201E170DB
:105460009DF80200C008E17860F3C301E1709DF887
:1054700002008008E17860F30411E1709DF80200F9
:105480004008E17860F34511E1709DF80200E17891
:1054900060F38611E1709DF8030000F001002071B7
:1054A0009DF8040000F00700607105E00020206016
:1054B000A0800F20207000BF00BF1CBD01480078F5
:1054C0007047000086000020F8B505460C461646D9
:1054D0006946204600F0C0F82078B04201DD012086
:1054E000F8BD227829469DF8000000F00FF9002051
:1054F000F6E7000070B52DED088B044600259FED02
:10550000460BB0EE408AF0EE608AFFF7D7FF022824
:1055100079D1012000F0F6FD40F67F1000F066F929
:1055200040F00206314640F67F1000F015FA40F6D2
:10553000241000F05BF900F0CF0004F0030140EA12
:105540000116314640F6241000F006FA40F66110CC
:1055500000F04CF9060440F6621000F047F946EA04
:10556000002640F6631000F041F946EA00050020ED
:1055700000F0C8FD34B1012C23D0022C22D0032C22
:1055800038D120E0FFF7EEFD0646FAF7CEFF41ECFA
:105590001A0B1821284600F01BFF0646FAF7C5FF34
:1055A00041EC1B0B53EC1A2BFAF750FF41EC190B93
:1055B0009FED1B0B53EC102BFAF7D3FE41EC180BAD
:1055C0001FE000BF00BF2846FAF7C0FF41EC1A0BEE
:1055D0009FED150B53EC102BFAF7C3FE41EC190BA2
:1055E0009FED130B53EC102BFAF730FF41EC180B27
:1055F00007E008E09FED080BB0EE408AF0EE608A0D
:1056000000BF00BF00E000BF00BFB0EE480AF0EEF0
:10561000680ABDEC088B70BD0000000000000000AF
:1056200000000000A3E1E140000000000000344061
:10563000000000000000594008B500200090012241
:1056400069461F2000F09AF89DF80000414201EBE6
:10565000D170401040B208BD38B504460D46022254
:105660006946172000F08AF8FFF728FF01280DD1BE
:1056700040F6031000F0BAF80121B1EBE01F05D1AC
:1056800040F6011000F0B2F820700BE0FFF716FFB3
:10569000042804D19DF80000801C207002E09DF8D1
:1056A000000020709DF80100287038BD1CB5002056
:1056B0000190012201A9C02000F060F89DF80400CB
:1056C00000909DF8001008461CBD10B54FF4006115
:1056D0004FF09040FBF796FD044601214FF09040BB
:1056E000FBF790FD44EA4000C0B210BD10B504467F
:1056F000204600F001F810BD10B50446002201213B
:105700004FF090402368FBF785FD10BD2DE9F04177
:1057100005460E461446E71C1B201649087008462D
:1057200045700020887000BF05E00022C11C114BAD
:105730005A54411C88B2A042F7DB00F0B0F80022B6
:1057400010214FF09040FBF783FD3A460A49094883
:1057500000F04CFF22460849C91C3046FAF732FDDA
:10576000012210214FF09040FBF772FD00F097F8F6
:10577000BDE8F081C0050020BF1500202DE9F041F3
:1057800005460E461446A01C87B216480570002038
:105790001449487000BF05E00022811C114B5A5487
:1057A000411C88B2A042F7DB00F079F800221021FA
:1057B0004FF09040FBF74CFD3A460B49094800F08A
:1057C00015FF22460849891C3046FAF7FBFC0122E6
:1057D00010214FF09040FBF73BFD00F060F8BDE872
:1057E000F0810000C0050020BF15002038B5044638
:1057F00001226946204600F003F89DF8000038BDFC
:105800002DE9F04104460E461546281D87B21920A1
:1058100016490870200A48708C700020C87000BFBC
:1058200005E00022011D114B5A54411C88B2A842C8
:10583000F7DB00F034F8002210214FF09040FBF726
:1058400007FD3A460A49094800F0D0FE2A460849B1
:10585000091D3046FAF7B6FC012210214FF09040A6
:10586000FBF7F6FC00F01BF8BDE8F081C005002056
:10587000BF15002010B500224FF480514FF090402A
:10588000FBF7E6FC0520FCF74DFA012211034FF06F
:105890009040FBF7DDFC0220FCF744FA10BD10B588
:1058A00000BF4FF400614FF09040FCF74BFC012823
:1058B000F7D010BD2DE9F04104460E461546AF1C49
:1058C0001A2010490870201248702A4631460D48A7
:1058D000801CFAF777FCFFF7E2FF002210214FF05F
:1058E0009040FBF7B5FC3946064800F071FE0122F6
:1058F00010214FF09040FBF7ABFCFFF7D0FFBDE865
:10590000F0810000C00500202DE9F04105460E465B
:105910001446601C87B2FFF7C2FF002210214FF02F
:105920009040FBF795FC0B48057022463146401C21
:10593000FAF748FC3946074800F04AFE01221021D8
:105940004FF09040FBF784FC842D01D0FFF7A7FFB8
:10595000BDE8F081C005002013B50446012201A96D
:10596000204600F001F81CBD2DE9F04104460E462A
:105970001546E81C87B2182010490870200A4870A4
:105980008C702A4631460D48C01CFAF71BFCFFF705
:1059900086FF002210214FF09040FBF759FC39465A
:1059A000064800F015FE012210214FF09040FBF751
:1059B0004FFCFFF774FFBDE8F0810000C005002038
:1059C00010B50446024804600248FFF78FFE10BD80
:1059D000940000208C0000200120014908707047CD
:1059E0009000002070B50F25FFF7DEFB00B970BDF9
:1059F000FFF764FD0546FFF7A7FB04464FF6FF706F
:105A0000FFF7F4FA012D3DD11F480078042828D073
:105A1000052835D104F0020002280AD104F0400024
:105A2000402803D103201949087002E001201749DA
:105A3000087004F02000202802D1032013490870C8
:105A400004F48040B0F5804F02D102200F49087065
:105A500004F48070B0F5807F02D103200B490870F8
:105A60000FE004F0010010B104200849087004F4AC
:105A70008040B0F5804F02D105200449087000E055
:105A800000BF00BF00BFB2E78500002084000020F7
:105A900010B540F62310FFF7A9FE044644F020019C
:105AA00040F62310FFF758FF24F0200140F62310A2
:105AB000FFF752FF10BD10B504467F2C01DA7F209E
:105AC00000E02046014640F61E10FFF745FF10BDDE
:105AD00037B504460D462946204600F0DFF9029806
